:020000040800F2
:100000000050002045330008611200086312000808
:10001000651200086712000869120008000000005D
:100020000000000000000000000000006B1200084B
:100030006D120008000000006F1200087112000825
:100040008D3300088D3300088D3300088D33000890
:100050008D3300088D3300088D3300088D33000880
:100060008D3300088D3300088D3300088D33000870
:100070008D3300088D3300088D3300088D33000860
:100080008D3300088D3300088D3300088D33000850
:100090008D3300088D3300088D3300088D33000840
:1000A0008D3300088D3300088D3300088D33000830
:1000B0008D3300088D3300088D3300088D33000820
:1000C0008D3300088D3300088D3300088D33000810
:1000D0008D3300088D3300088D3300088D33000800
:1000E0008D3300088D3300088D33000800000000B8
:1000F0000000000000000000000000000000000000
:0C01000000000000000000005FF808F1A3
:10010C000348044B834202D0034B03B1184770479A
:10011C007800002078000020000000000548064907
:10012C00091A891001EBD171491002D0034B03B1AC
:10013C00184770477800002078000020000000006D
:10014C0010B5064C237843B9FFF7DAFF044B13B113
:10015C000448AFF300800123237010BD7800002009
:10016C00000000009033000808B5044B1BB1044993
:10017C000448AFF30080BDE80840CFE70000000062
:10018C007C0000209033000870B50D4E0D4D761B91
:10019C00B61006D00024013455F8043B9847A6420B
:1001AC00F9D1094E094D03F0EDF8761BB61006D0C7
:1001BC000024013455F8043B9847A642F9D170BD90
:1001CC0048390008483900084C39000848390008FB
:1001DC000CB470B56FF000459CB020AC54F8042BF7
:1001EC00094E02910691234602A901940795CDE987
:1001FC00045600F059F90022029B1A701CB0BDE89D
:10020C00704002B0704700BF0802FFFF0EB40346F7
:10021C0030B56FF000449CB01FA951F8042B0A486C
:10022C000A4D0293069301910B46006802A90794AC
:10023C00CDE9044500F038F90022029B1A701CB07D
:10024C00BDE8304003B07047000000200802FFFFFB
:10025C0020F0030110F00300C0F1000051F8043B42
:10026C0000F1040C4FEACC0C6FF000021CBF22FA18
:10027C000CF213434FF0010C4CEA0C2C4CEA0C4CD6
:10028C00A3EB0C0222EA030212EACC1204BF51F8CF
:10029C00043B0430F4D0C2F1000102EA0102B2FACC
:1002AC0082F2C2F11F0200EBD200704730B56FF042
:1002BC0000449BB0064D0091049169460594CDE92C
:1002CC00024500F0F1F80022009B1A701BB030BD03
:1002DC000802FFFF10B4044C13460A46014620687E
:1002EC0010BCFFF7E3BF00BF000000202DE9F04772
:1002FC008E6880469E420C461D461746086836D8C6
:10030C00B1F80CC01CF4906F0DD135462A46394615
:10031C0000F0A0FC0020A2682368961B2B44A6606A
:10032C002360BDE8F087D1E9041606EB460606EB20
:10033C00D676A0EB0109013376104B44B34232461A
:10034C0084BF1E4632461CF4806F12D011464046C4
:10035C0000F03AFD824600B34A46216900F004FCE5
:10036C00A38923F4906343F08003A38106E01E4627
:10037C00CCE7404600F08CFD824650B1A6EB090359
:10038C000AEB09006661C4F810A02060A3602E4639
:10039C00BCE72169404600F0C3FC0C23C8F80030D0
:1003AC00A3894FF0FF3043F04003A381B9E700BFAE
:1003BC002DE9F04F936883B09046002B6DD01768F1
:1003CC0082460C46086808378D6843E0A38913F40D
:1003DC00906F2ED0D4E9041505EB4505A0EB010B6D
:1003EC0005EBD5750BEB06006D100130A8422A46C3
:1003FC0084BF05462A465B0536D51146504600F0AB
:10040C00E3FC00283AD05A462169019000F0ACFB7D
:10041C00A289019B22F4906242F08002A281A5EB9A
:10042C000B0203EB0B006561B3463546236120607C
:10043C00A2605A46494600F00DFCD8F80830A26874
:10044C002068551B58449E1BA5602060C8F80860A6
:10045C001EB3083757E90296AB46002EF9D0AE42D0
:10046C00B4D23546B346E4E7504600F011FD0346DE
:10047C000028D4D12169504600F052FC0C230022F4
:10048C004FF0FF30CAF80030A38943F04003A3813A
:10049C00C8E9012203B0BDE8F08F0020C8F80400C1
:1004AC0003B0BDE8F08F00BF2DE9F04F8B46898972
:1004BC009FB00C069046029004D5DBF81020002A61
:1004CC0000F00D81002020213022059398F8003097
:1004DC0001270B908DF831108C4E8DF83220002BAB
:1004EC0000F08680252B00F0F880454603E0252B94
:1004FC0000F0888025466B786C1C002BF7D1B4EB90
:10050C00080A75D04246534659460298FFF7EEFE4C
:10051C0001306DD00B9B6A7853440B93002A67D043
:10052C0000234FF0FF3201340693CDE908338DF8E8
:10053C005B301C93079206E02C46069B801B07FA47
:10054C0000F0184306902546052215F8011B30468D
:10055C0000F0C4FAAA460028EED1069BD90644BF87
:10056C0020228DF85B201A0748BF2B22217848BF28
:10057C008DF85B202A2949D1059A1168043200298B
:10058C0005927FDB09916178A51C2E2957D0604C10
:10059C000322204600F0A2FA002869D04022069BD4
:1005AC00001B02FA00F00343069305F101082B78B7
:1005BC000622194657488DF8303000F08FFA002883
:1005CC0066D0554B002B56D005AB00935A46534B77
:1005DC0006A90298AFF300808146B9F1FF3F07D01E
:1005EC000B9B4B440B9398F80030002B7FF47AAFA5
:1005FC00BBF80C305B064CBF4FF0FF300B981FB0B4
:10060C00BDE8F08FB4EB080A8AD07BE7A1F1300289
:10061C00092A88BFA246B8D8099B01E02C460135AF
:10062C00297803EB830302EB4303A1F13002092A7F
:10063C00AA46F3D92E2904F102050993A7D19AF8F9
:10064C0001102A292ED1059B0AF102001A680433E5
:10065C00002A079205939AF802100AF1030537DB7A
:10066C002B4C82460322204600F038FA002895D104
:10067C00A84655469BE7059B073323F00703083331
:10068C000593ADE7494243F00203099106937AE7DB
:10069C0005AB00935A46214B06A9029800F0D4F8FA
:1006AC0081469AE70023A1F13002092A079301D968
:1006BC0023E05546697803EB830302EB4303A1F176
:1006CC003002092A05F1010AF3D9023507935EE7D6
:1006DC004FF0FF338246079359E7444620E7402109
:1006EC00039300F071FB039BCBF80000CBF81000D8
:1006FC0030B14022CBF81420E4E6AA46013546E797
:10070C000C23029A4FF0FF30136078E70C39000885
:10071C00143900081839000800000000F90200081C
:10072C002DE9F0470C460969A56891468D42B8BF82
:10073C000D46156094F8431006461F46DDF82080E0
:10074C0011B16A1CC9F80020236899065CD5D9F848
:10075C0000200232C9F80020236813F0060F194656
:10076C001DD1E1688A1A002AD8BF194617DD002569
:10077C0004F1190A05E0E368D9F800209B1AAB4292
:10078C000CDD0123524639463046C047013005F195
:10079C000105F0D14FF0FF30BDE8F087216894F8E7
:1007AC004330003318BF01238A060AD53021E218E2
:1007BC0082F8431094F845105A1C224482F84310D6
:1007CC00023304F1430239463046C0470130E1D0D0
:1007DC002368A26803F00603042B21691DD08A420A
:1007EC0026DD4FF00009521A914400251A3401E01D
:1007FC004D451DDA0123224639463046C0470130AB
:10080C0005F10105F4D1C5E713F0060F13D094F8E8
:10081C004330003318BF0123D3E7D9F80000E36855
:10082C008A42A3EB000323EAE379DCDC002BDCDC5B
:10083C000020BDE8F087E168D9F800208A1A002A68
:10084C00D8BF194693DCAAE72DE9F0430C46097E84
:10085C0085B06E2906461746984604F1430C0C9851
:10086C006DD039D9732900F0F48044D9752900F082
:10087C000281782940F00F8178232268DFF854E256
:10088C0084F845300168150651F8043B016040F1CD
:10089C00A180D10744BF42F020022260002B00F05F
:1008AC0093801022002184F8431060680028A06017
:1008BC00C0F2C680216821F004012160002B40F0B9
:1008CC00A280002840F0BE806546082A00F0AB806C
:1008DC00ACEB0503236141E0632900F0E3801AD8F7
:1008EC00002938D0582940F0D68084F84510226869
:1008FC00DFF8E4E1C6E76F2900F0BD80702940F015
:10090C00CA8078232268DFF8CCE142F02002226012
:10091C0084F84530B6E7642902D0692940F0BB80E1
:10092C0022680368110603F1040557D519680560A0
:10093C000B46002959DB0A22DFF89CE1B5E7036876
:10094C0022681D1D6169056015061B6802D45006DE
:10095C0000F1BB801960002365462361CDF800804F
:10096C003B4603AA21463046FFF7DAFE013020D081
:10097C002A46236939463046C047013019D02268CF
:10098C0003989207E36819D51A1A002A16DD002578
:10099C0004F1190904E0E36803981A1AAA420DDD60
:1009AC0001234A4639463046C047013005F101055E
:1009BC00F1D14FF0FF3005B0BDE8F0839842B8BFDD
:1009CC00184605B0BDE8F0832168102221F0200103
:1009DC00216067E7500648BF9BB25AE75106A5D580
:1009EC00B3F9003005601946A3E72D2061685B421E
:1009FC00002984F84300A16002DB22F0040222608B
:100A0C000A22DFF8D4E0654600E00B46B3FBF2F1B6
:100A1C0002FB11301EF80000934205F8010DF4D2D0
:100A2C00082A7FF455AF2368DB077FF551AF626866
:100A3C0023699A423FF74CAF3023013D2B7047E7B7
:100A4C00002BE0D19EF8003004F1420584F84230CE
:100A5C003BE703686268191D01601D680021284688
:100A6C0000F03CF8002832D0401B6060206100236D
:100A7C0084F8433072E72268036812F0800F03F1A8
:100A8C0004051AD01B6805606F290CBF08220A22C6
:100A9C00DFF844E006E7012384F84210236104F1F7
:100AAC004205E4E70122036804F14205191D1B68A5
:100ABC00016084F842302261D9E712F0400F0DBF7B
:100ACC001B6805601B880560DEE7198043E76068DA
:100ADC00CCE700BF3439000820390008830770B414
:100AEC00CDB23DD0541E0AB30378AB421FD0431C89
:100AFC0005E014F1FF3419D30278AA4217D013F091
:100B0C00030F184603F10103F3D1032C11D84CB396
:100B1C000378AB420BD00444431C02E00278AA4297
:100B2C0005D09C42184603F10103F7D1002070BC9C
:100B3C00704702460E02B6B22E4346EA06461368CA
:100B4C0010467340A3F1013121EA030313F0803FF7
:100B5C0002F10402DCD1043C032C1046EFD8D6E79A
:100B6C001446D2E72046E2E7844641EA000313F03C
:100B7C00030349D1403A23D30B6803604B684360AD
:100B8C008B688360CB68C3600B6903614B694361FD
:100B9C008B698361CB69C3610B6A03624B6A4362E5
:100BAC008B6A8362CB6AC3620B6B03634B6B4363CD
:100BBC008B6B8363CB6BC36340304031403ADBD2E9
:100BCC0030320BD30B6803604B6843608B688360D7
:100BDC00CB68C36010301031103AF3D20C3205D30D
:100BEC0051F8043B40F8043B043AF9D2043208D0E3
:100BFC00D2071CBF11F8013B00F8013B01D30B8855
:100C0C0003806046704700BF082A13D38B07B1D00E
:100C1C0010F00303AED0C3F10403D21ADB071CBFE0
:100C2C0011F8013B00F8013BA4D331F8023B20F84A
:100C3C00023B9FE7043AD9D3013A11F8013B00F883
:100C4C00013BF9D20B7803704B7843708B7883702F
:100C5C00604670478842F0B40DD98B1883420AD98C
:100C6C00841832B1224613F8014D994202F8014D15
:100C7C00F9D1F0BC70470F2A0ED80346541E002A37
:100C8C00F7D001340C44013B11F8012BA14203F8BD
:100C9C00012FF9D1F0BC704740EA01039B073AD110
:100CAC00A2F110073F0901F1200606EB071601F12E
:100CBC00100300F1100453F8105C103344F8105C6E
:100CCC0053F81C5C103444F81C5C53F8185C44F862
:100CDC00185C53F8145CB34244F8145CEBD17B1CE5
:100CEC001B0112F00C0F194402F00F05034415D030
:100CFC000E46043DAD0803EB850C1C1F56F8047B17
:100D0C0044F8047F6445F9D10135AD002B442944E6
:100D1C0002F00302B2E7541E0346B2E72A46ADE7DF
:100D2C0000293AD038B551F8043C0C1F002BB8BF41
:100D3C00E418054600F0E4F8224B1A682AB1A242E6
:100D4C000DD921686018824221D0626028461C604F
:100D5C00BDE8384000F0D6B8A34203D81A46536811
:100D6C00002BF9D111685018A04217D022D8216855
:100D7C006018834203BFD3E900030918C4E90013C8
:100D8C00636054602846BDE8384000F0BBB8D2E937
:100D9C0000020144C4E90012D8E7704720680144FE
:100DAC00501883421160EDD1D3E900030144C2E92C
:100DBC000013E7E70C2328462B60BDE8384000F011
:100DCC00A1B800BF94000020F8B5CD1C25F0030598
:100DDC0008350C2D38BF0C25002D064633DBA942F7
:100DEC0031D82A4F00F08CF83A6852B113685B1B6B
:100DFC0004D43FE023685B1B29D522465468002CA1
:100E0C00F8D1796800293BD02946304600F066F8C5
:100E1C00431C28D0C41C24F00304A04205D0211A82
:100E2C00304600F05BF801301DD02560304600F0F4
:100E3C0069F804F10B0020F00700231DC21A01D041
:100E4C001B1AA350F8BD0C2200203260F8BD0B2BEE
:100E5C0005D8A242636811D05360E7E714462360BB
:100E6C001C442560E2E70C233046336000F04AF85E
:100E7C000020F8BD0B2BF1D8144653683B60D5E726
:100E8C00304600F02BF87860BEE700BF94000020DD
:100E9C0009B3F8B51446CAB106460D4600F034F84D
:100EAC00A04202D32F463846F8BD21463046FFF704
:100EBC008BFF07460028F6D022462946FFF754FE42
:100ECC0030462946FFF72CFF3846F8BD2746FFF77A
:100EDC0027FF3846F8BD1146FFF776BF38B500231B
:100EEC00064C05460846236000F016F8431C00D05B
:100EFC0038BD2368002BFBD02B6038BDFC010020D3
:100F0C00704700BF704700BF51F8043C181F002BFE
:100F1C00BCBF0B58C0187047044A05491368002B16
:100F2C0008BF0B4618441060184670479C00002000
:100F3C0000020020FEE700B591B00023089309934E
:100F4C000B930C9301930293039304930593012247
:100F5C0006924FF4803307930A9202220D920E935D
:100F6C004FF4E0130F9306A800F0A6FB80B90F23F3
:100F7C00019302210291002303934FF480620492A7
:100F8C00059301A800F074FE20B911B05DF804FBC4
:100F9C00FFF7D0FFFFF7CEFF30B5CDB000F03EFB32
:100FAC00FFF7C9FF00F0B4F800F000F902F0CEF83A
:100FBC00012001F00DFF4FF6FF7001F0F1FE4FF62E
:100FCC00FF714FF4FC6002F0B7F83E4802F01CF8D9
:100FDC003D4802F019F83D4802F016F83C4802F082
:100FEC00A9F901464B903B4802F00EF84BA93A4840
:100FFC0002F00AF84B9B394A934208D002F5823230
:10100C000632934209D0012001F0E2FE02E00320F7
:10101C0001F0DEFE002200240CE0012001F0D8FEDD
:10102C00F8E72F4801F0F0FF4FF47A7000F01AFB4C
:10103C0001342A46072CEEDC551C2A496846FFF77A
:10104C00E5F86846FFF704F9642382B2694626483E
:10105C0000F050FA6421084602F05AF82146234861
:10106C0001F0D2FF631E062B28D801A252F823F000
:10107C0099100008A1100008A9100008B110000870
:10108C00B9100008C11000082F100008184801F012
:10109C00BBFFC9E7174801F0B7FFC5E7164801F0D9
:1010AC00B3FFC1E7154801F0AFFFBDE7144801F0ED
:1010BC00ABFFB9E7134801F0A7FFB5E7124801F001
:1010CC00A3FFB1E7BC330008D4330008FC3300089D
:1010DC0000FC00080C340008203400084C656674D1
:1010EC004C34000834340008B401002044340008A7
:1010FC005834000864340008703400087C3400084C
:10110C008834000894340008A034000870470000AC
:10111C0010B588B000230693079303F1804303F5C1
:10112C0004339A6942F010029A619A6902F0100233
:10113C000092009A9A6942F020029A619A6902F030
:10114C0020020192019A9A6942F004029A619A690A
:10115C0002F004020292029A9A6942F008029A6121
:10116C009B6903F008030393039B4FF460430493C0
:10117C000324059404A90A4800F0B4FE49F6F3735D
:10118C000493059404A9074800F0ACFE4FF6FF73D6
:10119C000493059404A9044800F0A4FE08B010BD03
:1011AC000010014000080140000C014008B50A483D
:1011BC000A4B03604FF4E133436000238360C36048
:1011CC0003610C2242618361C36100F01DF900B917
:1011DC0008BDFFF7AFFEFBE7B40100200044004060
:1011EC0010B586B000230293039304930593026811
:1011FC00164B9A4201D006B010BD03F5E633DA69FE
:10120C0042F40032DA61DA6902F400320092009A98
:10121C009A6942F004029A619B6903F004030193FA
:10122C00019B042302930223039303230593084C8D
:10123C0002A9204600F056FE0823029300230393D4
:10124C00049302A9204600F04DFED4E70044004070
:10125C00000801407047FEE7FEE7FEE7FEE7704737
:10126C007047704708B500F0EBF908BD82B00E4B23
:10127C009A6942F001029A619A6902F001020092A5
:10128C00009ADA6942F08052DA61DB6903F080532C
:10129C000193019B054A536823F0E06343F000730C
:1012AC00536002B0704700BF0010024000000140C4
:1012BC0038B504464268374B9A4256D8E36813B1A6
:1012CC00B3F5005F57D123692BB1B3F5806F02D012
:1012DC00B3F5C06F55D163694FF6F372134200D169
:1012EC0023B940F656612C48FFF710FF22681369AA
:1012FC0023F44053E1680B431361A3682269134341
:10130C0062691A432168CB6823F4B05323F00C03B1
:10131C001343CB602268536923F44073A1690B43D8
:10132C00536122681D4B9A4231D000F0BBFD00EB9B
:10133C00800000EB800063689B00B0FBF3F0184D5D
:10134C00A5FB00325109642202FB11021301323356
:10135C00A5FB03235B0903F0F00202EB011203F07F
:10136C000F03216813448B6038BD40F653610A4863
:10137C00FFF7CCFEA2E740F654610748FFF7C6FE24
:10138C00A1E740F655610448FFF7C0FEA3E700F063
:10139C0099FDCCE720AA4400AC3400080038014089
:1013AC001F85EB512DE9F04105460F461646984630
:1013BC00069C2B681B6837EA03030CBF0123002330
:1013CC00B3421DD1B4F1FF3FF3D02CB100F044F97E
:1013DC00A0EB0800A042ECD92A68D36823F4D073A0
:1013EC00D3602A68536923F001035361202385F8E5
:1013FC003D3085F83E30002385F83C30032000E07A
:10140C000020BDE8F081000000286CD010B5044627
:10141C0083690BB30368354A93420CD0A2F574422E
:10142C00934208D002F58062934204D04FF4B67117
:10143C002F48FFF76BFEA369FBB1B3F5807F1CD07F
:10144C00B3F5007F19D0B3F5407F16D040F26D1183
:10145C002748FFF75BFE10E00368244A93420CD048
:10146C00A2F57442934208D002F58062934204D0F4
:10147C0040F271111E48FFF749FEA36813B1B3F592
:10148C00805F24D194F83D303BB3242384F83D3065
:10149C002268D36823F40053D3602046FFF708FF7B
:1014AC002268136923F4904313612268536923F073
:1014BC002A0353612268D36843F40053D36000209D
:1014CC002064202384F83D3084F83E3010BD40F277
:1014DC0073110748FFF71AFED4E784F83C30204616
:1014EC00FFF77EFED1E70120704700BF00380140B6
:1014FC00AC3400082DE9F04182B01E4690F83D3026
:10150C00DBB2202B54D104460D469046002954D012
:10151C00002A54D090F83C30012B52D0012380F893
:10152C003C3000230364212380F83D3000F094F814
:10153C000746A4F82480A4F82680A368B3F5805F3E
:10154C0005D04FF00008002384F83C3011E02369EB
:10155C0013B14FF00008F6E7A8460025F3E738F87A
:10156C00023B2268C3F308035360E38C013B9BB23C
:10157C00E384E38C9BB273B100963B46002280213E
:10158C002046FFF70FFFF0B9002DE8D015F8012B1E
:10159C0023685A60E9E700963B460022402120462A
:1015AC00FFF700FF034680B9202284F83D2000E0BD
:1015BC000223184602B0BDE8F0810123F9E70123AC
:1015CC00F7E70223F5E70323F3E70323F1E7000032
:1015DC0010B504460E4B18784FF47A73B3FBF0F346
:1015EC000C4A1068B0FBF3F000F06EFE68B90F2CDB
:1015FC0001D901200AE0002221464FF0FF3000F013
:10160C001DFE054B1C60002000E0012010BD00BF3A
:10161C00640000206C0000206800002008B5074A18
:10162C00136843F010031360032000F0E9FD002061
:10163C00FFF7CEFFFFF71AFE002008BD0020024086
:10164C00034A1168034B1B780B441360704700BFAF
:10165C00F801002064000020014B1868704700BF9F
:10166C00F801002038B50446FFF7F6FF0546B4F143
:10167C00FF3F02D0044B1B781C44FFF7EDFF401BCF
:10168C00A042FAD338BD00BF6400002082B0084BE2
:10169C001B68084AA2FB03235B0A00FB03F00190C2
:1016AC0000BF019B5A1E0192002BF9D102B070476A
:1016BC006C000020D34D6210002800F08A8270B5B7
:1016CC0082B00446036813B113F00F0F2AD02368BD
:1016DC0013F0010F40D063682BB1B3F5803F02D0FB
:1016EC00B3F5A02F24D1A94B5B6803F00C03042B9A
:1016FC0029D0A64B5B6803F00C03082B1ED0636843
:10170C00B3F5803F55D0002B69D103F1804303F52D
:10171C0004331A6822F480321A601A6822F4802288
:10172C001A604BE040F267119948FFF7EFFCCEE7E7
:10173C0040F26D119648FFF7E9FCD4E7934B5B68D8
:10174C0013F4803FDBD0914B1B6813F4003F03D0A4
:10175C006368002B00F03F82236813F0020F00F047
:10176C0089802369012B63D863691F2B66D8874B4B
:10177C005B6813F00C0F6CD0844B5B6803F00C03AC
:10178C00082B61D02369002B00F09980814B01223A
:10179C001A60FFF761FF05467C4B1B6813F0020FC4
:1017AC0040F08480FFF758FF401B0228F4D9032037
:1017BC0016E2764A136843F480331360636843B3CC
:1017CC00FFF74AFF0546714B1B6813F4003FC3D16A
:1017DC00FFF742FF401B6428F5D9032000E2B3F564
:1017EC00A02F09D0694B1A6822F480321A601A684B
:1017FC0022F480221A60E1E703F18043A3F53C3325
:10180C001A6842F480221A601A6842F480321A6014
:10181C00D4E7FFF721FF05465C4B1B6813F4003F30
:10182C009AD0FFF719FF401B6428F5D90320D7E1A4
:10183C0040F2A1115648FFF769FC95E74FF4D171BE
:10184C005348FFF763FC92E7504B5B6813F4803FFF
:10185C0098D14E4B1B6813F0020F03D02369012B58
:10186C0040F0BB81494A136823F0F803616943EAED
:10187C00C1031360236813F0080F3BD0A369012B3D
:10188C002FD8A369002B66D0434B01221A60FFF7B7
:10189C00E3FE05463D4B5B6A13F0020F27D1FFF7C1
:1018AC00DBFE401B0228F5D9032099E1374A136867
:1018BC0023F0F803616943EAC1031360DAE7354B9F
:1018CC0000221A60FFF7C8FE0546304B1B6813F068
:1018DC00020FCFD0FFF7C0FE401B0228F5D9032022
:1018EC007EE14FF4F1712A48FFF710FCC9E70120A3
:1018FC00FFF7CCFE236813F0040F00F0A680E3681A
:10190C00012B01D9052B38D1204BDB6913F0805FFB
:10191C0039D11E4BDA6942F08052DA61DB6903F08F
:10192C0080530193019B01251C4B1B6813F4807F92
:10193C0036D0E368012B47D0002B5DD103F18043F7
:10194C0003F504331A6A22F001021A621A6A22F0B1
:10195C0004021A623DE0104B00221A60FFF77CFE75
:10196C0005460A4B5B6A13F0020FC3D0FFF774FEF7
:10197C00401B0228F5D9032032E140F21121044822
:10198C00FFF7C4FBC0E70025CEE700BF0010024004
:10199C00E4340008000042428004424200700040DF
:1019AC00934A136843F480731360FFF755FE0646A1
:1019BC008F4B1B6813F4807FBBD1FFF74DFE801B50
:1019CC006428F5D903200BE18A4A136A43F001031A
:1019DC001362E36833B3FFF73FFE0646854B1B6A81
:1019EC0013F0020F2FD1FFF737FE801B41F2883323
:1019FC009842F3D90320F3E0052B09D07D4B1A6AEA
:101A0C0022F001021A621A6A22F004021A62E0E75A
:101A1C00784B1A6A42F004021A621A6A42F0010206
:101A2C001A62D6E7FFF718FE0646724B1B6A13F0D4
:101A3C00020F08D0FFF710FE801B41F2883398424A
:101A4C00F3D90320CCE0002D53D1E369022B56D8F7
:101A5C00E369002B00F0C380664A526802F00C0266
:101A6C00082A00F0A680022B40F08F80236A13B165
:101A7C00B3F5803F49D1636A4BB3B3F5802F26D0C1
:101A8C00B3F5002F23D0B3F5402F20D0B3F5801F32
:101A9C001DD0B3F5A01F1AD0B3F5C01F17D0B3F5E6
:101AAC00E01F14D0B3F5001F11D0B3F5101F0ED0EA
:101ABC00B3F5201F0BD0B3F5301F08D0B3F5401F82
:101ACC0005D0B3F5501F02D0B3F5601F23D14A4B9C
:101ADC0000221A60FFF7C0FD0546464B1B6813F049
:101AEC00007F1ED0FFF7B8FD401B0228F5D903205C
:101AFC0076E0404AD36923F08053D361A5E740F2E6
:101B0C00AF213E48FFF702FBA2E74FF42E713B4892
:101B1C00FFF7FCFAAFE740F2B9213848FFF7F6FAC5
:101B2C00D5E7236AB3F5803F1AD032494B6823F4CA
:101B3C007413226A606A024313434B602E4B0122DA
:101B4C001A60FFF789FD04462A4B1B6813F0007FCF
:101B5C0019D1FFF781FD001B0228F5D903203FE0C6
:101B6C00A36813B1B3F5003F07D1224A536823F49D
:101B7C000033A1680B435360D7E740F2CF211F48D5
:101B8C00FFF7C4FAF1E700202AE01B4B00221A6091
:101B9C00FFF762FD0446174B1B6813F0007F06D05D
:101BAC00FFF75AFD001B0228F5D9032018E000208E
:101BBC0016E0012B16D00F4B5B6803F48031226AC0
:101BCC00914211D103F47013626A93420ED100203A
:101BDC0006E001207047012002E0012000E0002017
:101BEC0002B070BD0120FBE70120F9E70120F7E707
:101BFC00007000400010024060004242E4340008D3
:101C0C0010B487B0164C94E80F000DF1180C0CE9C9
:101C1C000F00238AADF80430124B5B6803F00C0202
:101C2C00082A03D0104807B010BC7047C3F3834296
:101C3C00624412F8102C13F4803F0CD0094B5B68F3
:101C4C00C3F34043634413F8143C074800FB02F011
:101C5C00B0FBF3F0E7E7054800FB02F0E3E700BF59
:101C6C00A83300080010024000127A0000093D0061
:101C7C00002800F0FC8070B504460D46036813F094
:101C8C000F0F6DD0022D71D87D4B1B6803F007032D
:101C9C00AB420BD27A4A136823F007032B43136031
:101CAC00136803F00703AB4240F0E380236813F0A2
:101CBC00020F29D013F0040F04D0724A536843F476
:101CCC00E0635360236813F0080F04D06D4A536827
:101CDC0043F460535360A3687BB1802B0DD0902BE1
:101CEC000BD0A02B09D0B02B07D0C02B05D0D02BFC
:101CFC0003D0E02B01D0F02B3ED1624A536823F085
:101D0C00F003A1680B435360236813F0010F4DD00F
:101D1C006368022B36D86368012B39D0022B3ED076
:101D2C00584A126812F0020F00F0A58055494A6813
:101D3C0022F0030213434B60FFF78EFC0646514B17
:101D4C005B6803F00C036268B3EB820F2ED0FFF7D5
:101D5C0083FC801B41F288339842F0D9032079E050
:101D6C004FF44E714848FFF7D1F98BE740F2393107
:101D7C004548FFF7CBF987E740F25F314248FFF760
:101D8C00C5F9BAE740F266313F48FFF7BFF9C2E741
:101D9C003C4A126812F4003FC8D101205AE0394A7B
:101DAC00126812F0007FC1D1012053E0344B1B6844
:101DBC0003F00703AB420AD9314A136823F0070337
:101DCC002B431360136803F00703AB4255D1236810
:101DDC0013F0040F14D0E3685BB1B3F5806F08D037
:101DEC00B3F5A06F05D0B3F5C06F02D0B3F5E06FBB
:101DFC0031D1244A536823F4E063E1680B43536008
:101E0C00236813F0080F15D023695BB1B3F5806F0D
:101E1C0008D0B3F5A06F05D0B3F5C06F02D0B3F501
:101E2C00E06F1ED1174A536823F46053216943EACB
:101E3C00C1035360FFF7E4FE124B5B68C3F303135B
:101E4C00124AD35CD840124B1860124B1868FFF73B
:101E5C00BFFB002070BD4FF469710B48FFF756F9BA
:101E6C00C7E740F2AB310848FFF750F9DAE7012039
:101E7C0070470120EEE70120ECE70120EAE700BF04
:101E8C000020024000100240E43400088C350008A9
:101E9C006C00002068000020014B1868704700BFE0
:101EAC006C00002008B5FFF7F7FF044B5B68C3F329
:101EBC000223034AD35CD84008BD00BF0010024087
:101ECC009C35000808B5FFF7E7FF044B5B68C3F3CC
:101EDC00C223034AD35CD84008BD00BF00100240A7
:101EEC009C3500082DE9F04383B080460F46B64B75
:101EFC00984213D003F5806398420FD003F58063AA
:101F0C0098420BD003F58063984207D003F58063A9
:101F1C00984203D0BD21AD48FFF7F8F83B689AB260
:101F2C0012B11B0C1B041BB1BE21A848FFF7EEF825
:101F3C007B68012B1ED9112B1CD0022B1AD0122B13
:101F4C0018D0A34A934215D002F58012934211D0B7
:101F5C0002F5801293420DD0A2F5F812934209D0EB
:101F6C0002F58012934205D002F58012934201D003
:101F7C00032B03D14FF000094E46D7E0BF21934805
:101F8C00FFF7C4F8F6E7002B5ED0012B15D1FB68E8
:101F9C00013B022B65D8D7F80C900EE08D4A93428A
:101FAC0052D049D98C4A93424ED002F5803293429A
:101FBC004AD0A2F58012934246D0FF2C00F28580C5
:101FCC004046FF2C00F28480B20003680F21914040
:101FDC0023EA010309FA02F2134303607B6813F04E
:101FEC00805F00F0A2807D4B9A6942F001029A61F9
:101FFC009B6903F001030193019BB208911C784B80
:10200C0053F8210006F0030399000F238B4020EABC
:10201C0003006D4B984561D003F58063984500F043
:10202C00BD8003F58063984500F0BA8003F58063AA
:10203C00984551D0042352E0A2F58012934203D06C
:10204C0002F580329342B8D1BB68022B2DD8BB6805
:10205C00002B37D0012B2DD0C8F814504FF00809A5
:10206C00ABE7D5215948FFF751F894E7DC215748E5
:10207C00FFF74CF88EE0FB68013B022B03D8FB68A2
:10208C0003F1080999E7E3215048FFF73FF8F6E719
:10209C00FB68013B022B03D8FB6803F10C098CE7AE
:1020AC00EA214A48FFF732F8F6E7F7214748FFF7ED
:1020BC002DF8CCE7C8F810504FF008097DE74FF029
:1020CC0000097AE74FF0040977E708F1040078E794
:1020DC00A6F10802920078E7032300E000238B406E
:1020EC00034302323E4941F822307B6813F4803FAF
:1020FC0058D03C4A1368234313607B6813F4003FA9
:10210C0056D0384A5368234353607B6813F4801FBE
:10211C0054D0344A9368234393607B6813F4001FB4
:10212C0062D0304AD3681C43D46001363C6834FA20
:10213C0006F35FD00125B5402C40A542F5D1224BCA
:10214C00984513D003F5806398450FD003F5806351
:10215C0098450BD003F58063984507D003F5806351
:10216C00984503D0CD211948FEF7D0FF7B68122B80
:10217C008ED03FF613AF022B3FF47DAF7FF603AF4B
:10218C00032B9CD0112B7FF418AFFB68013B022B67
:10219C003FF66CAFFB6803F104090EE701239EE7E1
:1021AC0002239CE70F4A136823EA04031360A4E795
:1021BC000C4A536823EA04035360A6E7094A936860
:1021CC0023EA04039360A8E7000801401C350008CB
:1021DC00000011100000211000003110001002400E
:1021EC000000014000040140044AD36823EA0404BF
:1021FC00D4609AE703B0BDE8F08300BF000401404F
:10220C0010B50446C31E042B0FD80A4AD36823F416
:10221C00E0631B041B0C240204F4E064234343F02E
:10222C00BF6343F40033D36010BD92210248FEF724
:10223C006DFFEAE700ED00E05435000870B5054687
:10224C000C4616460F2A0FD80F2C12D81B4BDB68E6
:10225C00C3F30223C3F10702042A28BF0422191D69
:10226C0006290BD9033B0AE0AA211548FEF74EFFBD
:10227C00EAE7AB211248FEF749FFE7E700234FF0EE
:10228C00FF3101FA02F224EA02049C4001FA03F342
:10229C0026EA03063443002D08DB2401E4B205F1E1
:1022AC00604505F5614585F8004370BD05F00F05E7
:1022BC002401E4B2034B5C55F7E700BF00ED00E0EE
:1022CC005435000814ED00E00138B0F1807F0AD2DB
:1022DC00064B5860064AF02182F8231000209860C3
:1022EC0007221A6070470120704700BF10E000E021
:1022FC0000ED00E00F4B1A6842F001021A605968B9
:10230C000D4A0A405A601A6822F0847222F4803214
:10231C001A601A6822F480221A605A6822F4FE02AB
:10232C005A604FF41F029A60044B4FF000629A609F
:10233C00704700BF001002400000FFF800ED00E005
:10234C00012800D970472DE9F04188B006462D4B85
:10235C009A6942F004029A619A6902F004020192AD
:10236C00019A9A6942F008029A619A6902F008028D
:10237C000292029A9A6942F010029A619B6903F0E8
:10238C0010030393039B4FF4E06304930590002523
:10239C00069502240794DFF8748004A94046FFF7E1
:1023AC00A1FD4FF487630493059606950794164F89
:1023BC0004A93846FFF796FD8023049305960695ED
:1023CC00079404A94046FFF78DFD132304930126BF
:1023DC0005960695079404A94046FFF783FD0496DD
:1023EC0005960695079404A93846FFF77BFD0494DF
:1023FC0005960695079404A93846FFF773FD08B0B7
:10240C00BDE8F08100100240000C014000080140C2
:10241C00F0B5040AC2B2AA4E4FF480333361A94D11
:10242C004FF480132B61EB6823F4F0631B041B0C3B
:10243C0043F48063EB60F36823F487631B041B0C89
:10244C0043F01803F3604FF400332B61022301E0D7
:10245C0000BF013B002BFBD102239A4D2B6113B122
:10246C0000BF013BFBE7974E10233361030AF7686B
:10247C0027F4F0673F043F0C5D0205F400752F4311
:10248C001D0205F480652F434FEA430C0CF4807554
:10249C002F439D0105F080052F43F760884FFD68A1
:1024AC0025F487652D042D0C03F0080E45EA0E0566
:1024BC000CF0200C45EA0C054FEA630C0CF0100CE8
:1024CC0045EA0C051B0103F480632B43FB604FF4BE
:1024DC0000333361022313B100BF013BFBE702233E
:1024EC00784D2B6113B100BF013BFBE7C0B2754EB9
:1024FC00F56825F4F0652D042D0C430203F40073EC
:10250C001D43030203F480631D43470007F48073EB
:10251C001D43830103F080031D43F560684DEB6898
:10252C0023F487631B041B0C00F0080C43EA0C0318
:10253C0007F020073B43471007F010073B4300010F
:10254C0000F480600343EB604FF4003333610223EB
:10255C0013B100BF013BFBE702235A48036101E0C2
:10256C0000BF013B002BFBD1013994426DD11BE024
:10257C00022354490B6101E000BF013B002BFBD14E
:10258C0003F1804303F584334FF4003119610223C6
:10259C0013B100BF013BFBE702234A490B6113B1A6
:1025AC0000BF013BFBE711464A1E002900F0848066
:1025BC00444B4FF4003119610223002BD8D000BFDB
:1025CC00013BFAE702233F490B6113B100BF013B0A
:1025DC00FBE73C4DE96821F4F0610904090C530256
:1025EC0003F400731943130203F480631943560078
:1025FC0006F480731943930103F080031943E960D7
:10260C002F4FFB6823F487631B041B0C02F008019B
:10261C000B4306F020063343511001F010010B431D
:10262C00110101F480610B43FB604FF400332B610B
:10263C00022313B100BF013BFBE7022321490B61CD
:10264C0013B100BF013BFBE70146481EA1B31D4D72
:10265C00E96821F4F0610904090C630203F40073C6
:10266C001943230203F480631943660006F4807354
:10267C001943A30103F080031943E960104FFB6871
:10268C0023F487631B041B0C04F008010B4306F0B6
:10269C0020063343611001F010010B43210101F4BA
:1026AC0080610B43FB604FF400332B610223002B42
:1026BC0088D000BF013BFAE7014B01221A61F0BD43
:1026CC00000C014000080140F8B5274E012333618E
:1026DC00264D10222A6102242C612B614FF4003705
:1026EC0037612046FEF7BEFF34617820FEF7BAFF53
:1026FC004FF4803333614FF480132B61EB6823F478
:10270C00F0631B041B0CEB60F36823F487631B045E
:10271C001B0CF3602F6101E000BF013C002CFBD1CE
:10272C000223124A136101E000BF013B002BFBD1D5
:10273C00002208E002230D490B6113B100BF013BDD
:10274C00FBE70132D2B2022A09D8084B4FF4003110
:10275C0019610223002BEDD000BF013BFAE7024BBD
:10276C0001221A61F8BD00BF000C014000080140B5
:10277C00F0B4A54D4FF480342C6142EA004204F1D0
:10278C00804404F500644FF480102061E06820F46C
:10279C00F0600004000C40F08000E060E86820F479
:1027AC0087600004000C40F01800E8604FF4003023
:1027BC002061022010B100BF0138FBE70220934CCE
:1027CC00206110B100BF0138FBE7904E1020306142
:1027DC00140EF56825F4F0652D042D0C600200F440
:1027EC0000700543200200F480600543670007F485
:1027FC0080700543A00100F080000543F560824D18
:10280C00E86820F487600004000C04F0080C40EA2F
:10281C000C0007F020073843671007F01007384307
:10282C00240104F480640443EC604FF40030306104
:10283C00022010B100BF0138FBE70220734C20616D
:10284C0010B100BF0138FBE7C2F307446F4EF568C7
:10285C0025F4F0652D042D0C600200F40070054386
:10286C00200200F480600543670007F48070054384
:10287C00A00100F080000543F560634DE86820F48A
:10288C0087600004000C04F0080C40EA0C0007F010
:10289C0020073843671007F010073843240104F46D
:1028AC0080640443EC604FF400303061022010B1BE
:1028BC0000BF0138FBE70220544C206110B100BF6F
:1028CC000138FBE7C2F30724504EF06820F4F060A7
:1028DC000004000C650205F400752843250205F47C
:1028EC0080652843670007F480752843A50105F02F
:1028FC0080052843F0604448C56825F487652D049D
:10290C002D0C04F0080C45EA0C0507F020073D439C
:10291C00671007F010073D43240104F480642C4336
:10292C00C4604FF400303061022010B100BF013898
:10293C00FBE70220354C206101E000BF0138002884
:10294C00FBD1D2B2314DE86820F4F0600004000CE9
:10295C00540204F400742043140204F480642043F1
:10296C00560006F480742043940104F08004204344
:10297C00E8602548C46824F487642404240C02F01D
:10298C0008073C4306F020063443561006F01006A8
:10299C003443120102F480622243C2604FF40032CD
:1029AC002A61022212B100BF013AFBE7022217484A
:1029BC00026112B100BF013AFBE743EA014313493C
:1029CC004FF480120A61CA6822F4F0621204120CED
:1029DC0042F42072CA600C48C26822F48762120466
:1029EC00120C42F01802C2604FF400320A6102224B
:1029FC0012B100BF013AFBE7022204490A613AB165
:102A0C0000BF013AFBE700BF000C01400008014089
:102A1C007C4C102222611A0EE06820F4F060000455
:102A2C00000C510201F400710843110201F48061A1
:102A3C000843550005F480710843910101F08001B1
:102A4C000843E0607048C16821F487610904090CEF
:102A5C0002F00806314305F020052943551005F016
:102A6C0010052943120102F480620A43C2604FF43C
:102A7C0000322261022212B100BF013AFBE70222AE
:102A8C0060490A6112B100BF013AFBE7C3F3074288
:102A9C005C4CE06820F4F0600004000C510201F47E
:102AAC0000710843110201F480610843550005F4DC
:102ABC0080710843910101F080010843E0605248A5
:102ACC00C16821F487610904090C02F0080631433E
:102ADC0005F020052943551005F010052943120176
:102AEC0002F480620A43C2604FF400322261022277
:102AFC0012B100BF013AFBE7022242490A6112B14E
:102B0C0000BF013AFBE7C3F307223E4CE06820F418
:102B1C00F0600004000C510201F400710843110232
:102B2C0001F480610843550005F48071084391015C
:102B3C0001F080010843E0603348C16821F48761EB
:102B4C000904090C02F00806314305F0200529435D
:102B5C00551005F010052943120102F480620A4356
:102B6C00C2604FF400322261022212B100BF013A5E
:102B7C00FBE7022223490A6112B100BF013AFBE7CD
:102B8C00DBB2204CE06820F4F0600004000C5A0228
:102B9C0002F4007210431A0202F4806210435900CE
:102BAC0001F4807210439A0102F080021043E0603D
:102BBC001548C26822F487621204120C03F008054F
:102BCC002A4301F020010A43591001F010010A4375
:102BDC001B0103F480631343C3604FF40033236180
:102BEC00022313B100BF013BFBE70223054A13612B
:102BFC0013B100BF013BFBE7034B01221A61F0BC90
:102C0C00704700BF00080140000C01400028C0F2D2
:102C1C00BE800029C0F2BB80F8B55D4BB3F9005003
:102C2C00854204DD5B4BB3F900308B4200DCF8BD10
:102C3C001446594E4FF480373761013B6A1E9BB2E4
:102C4C0092B289B280B2FFF793FD3761534A4FF4C9
:102C5C0080131361D36823F4F0631B041B0C43F43F
:102C6C008063D360F36823F487631B041B0C43F06D
:102C7C001803F3604FF400331361022313B100BF48
:102C8C00013BFBE70223454A136113B100BF013B33
:102C9C00FBE7424810230361230AC16821F4F06169
:102CAC000904090C5A0202F4007211431A0202F4CC
:102CBC00806211435D0005F4807211439A0102F0A9
:102CCC0080021143C1603449CA6822F4876212043D
:102CDC00120C03F00806324305F020052A435D1060
:102CEC0005F010052A431B0103F480631343CB60EA
:102CFC004FF400330361022313B100BF013BFBE728
:102D0C000223264A136113B100BF013BFBE7E4B277
:102D1C002248C16821F4F0610904090C630203F430
:102D2C0000731943230203F480631943620002F415
:102D3C0080731943A30103F080031943C160164942
:102D4C00CB6823F487631B041B0C04F008052B438E
:102D5C0002F020021343621002F01002134324010C
:102D6C0004F480642343CB604FF4003303610223EB
:102D7C0013B100BF013BFBE70223084A136113B1F7
:102D8C0000BF013BFBE7044B01221A614FE7704780
:102D9C00AE010020A6010020000C014000080140FB
:102DAC0010B50446084B1B88013B084A1288013AAF
:102DBC009BB292B200210846FFF7DAFC4FF4963131
:102DCC002046FFF725FB10BDA6010020AE01002018
:102DDC0010B500F00300444B1870012830D00328C4
:102DEC002ED0424BF0221A80414B4FF4A0721A8025
:102DFC00404B4FF480321A61022829D0032829D085
:102E0C00012829D048223C494FF480130B61CB6830
:102E1C0023F4F0631B041B0C43F49063CB60354824
:102E2C00C36823F487631B041B0C43F03003C3609B
:102E3C004FF400330B61022383B100BF013BFBE76E
:102E4C002A4B4FF4A0721A80294BF0221A80CFE73C
:102E5C008822D8E7E822D6E72822D4E7022326499D
:102E6C000B6113B100BF013BFBE7234910230B613E
:102E7C00CB6823F4F0631B041B0C500000F480702F
:102E8C000343CB601B4CE36823F487631B041B0CCC
:102E9C0002F008000343501000F01000034312012D
:102EAC0002F480621343E3604FF400330B6102239E
:102EBC0013B100BF013BFBE702230F4A136113B1AF
:102ECC0000BF013BFBE70A4B1B88013B074A1288FA
:102EDC00013A9BB292B200210846FFF749FC054B20
:102EEC0001221A6110BD00BFA8010020AE01002014
:102EFC00A6010020000C0140000801402DE9F04F14
:102F0C0087B00E460193BDF8403002933B4BD988F5
:102F1C0003919D883A4BB3F9003083426ADD8046B9
:102F2C00384BB3F90030B34264DD4319002B61DD3B
:102F3C007318002B5EDDEB1DDB1004931F2A03D9E5
:102F4C007E2A02D9202200E02022A2F12003039A3B
:102F5C0003FB02F3049A1FFA82FB0BFB03F30593AA
:102F6C004FEAC2095FFA89F9EBB2A9EB03095FFAE0
:102F7C0089F94FF0000A25E0D75C00240CE0D35C03
:102F8C004F7847EA0327F8E704EB0800029A31462A
:102F9C0000B2FFF73BFE0134A5420FD92B1B4B446B
:102FAC00013B012202FA03F33B42EDD004EB080093
:102FBC00019A314600B2FFF729FEECE7013636B232
:102FCC000AF1010A039B534514D90C4B1A68049B54
:102FDC0005990AFB0313D118BBF1010FCCD0BBF13F
:102FEC00020FCCD0D35C4F783F0247EA03478B7873
:102FFC001F43C2E707B0BDE8F08F00BF7000002090
:10300C00AE010020A60100200FB430B585B008AA8F
:10301C0052F8041B0392344C2046FDF75BF9334BFA
:10302C00DA88ADF80A209B88ADF8083009E0BDF8C5
:10303C000A302F4A11880B4413802E4B00221A8021
:10304C0001342278002A4AD00A2AF0D00D2A3AD02C
:10305C00092A3CD0264BB3F90010BDF80A00264BC8
:10306C00B3F900301B1A994202DB214B0021198065
:10307C00204D224B1B780193214B1B880093214B35
:10308C001B881B49B1F90010B5F90000FFF736FF9A
:10309C00BDF808302A8813441BB22B801A4A1278C8
:1030AC00002ACDD0BDF80810184AB2F90020521AE7
:1030BC009342C5DDBDF80A300D4A11880B441380CC
:1030CC0000222A80BCE70B4B00221A80B8E7BDF81F
:1030DC000810084A138803EB81031380B0E705B08E
:1030EC00BDE8304004B07047A00000207000002004
:1030FC00A2010020A0010020A6010020A4010020B4
:10310C00AA010020AC010020B0010020AE0100207B
:10311C00024B1880024B1980704700BFA0010020A1
:10312C00A201002018B1034B00221A707047014A0B
:10313C0010707047A4010020024B1880024B1980BC
:10314C00704700BFAC010020AA010020F8B56D4B00
:10315C00F0221A806C4B4FF4A0721A8000266B4B35
:10316C001E706B4B1E806B4B1E806B4B1E704FF694
:10317C00FF736A4A13806A4A13800120694B1870E6
:10318C00FFF7DEF8FFF7A0FA3220FEF76BFA664B7A
:10319C004FF480321A616D2E00F29980721CD2B2FB
:1031AC0062498B5D0236F6B2885CFF2B02D1FEF7CA
:1031BC0059FAF0E75E4C4FF480122261E16821F479
:1031CC00F0610904090C5A0202F4007211431A024C
:1031DC0002F4806211435D0005F4807211439A0180
:1031EC0002F080021143E1604F49CA6822F4876201
:1031FC001204120C03F008073A4305F020052A4389
:10320C005D1005F010052A431B0103F48063134382
:10321C00CB604FF400332361022301E000BF013B7C
:10322C00002BFBD10223424A136113B100BF013BB7
:10323C00FBE703F1804303F5843310221A61002469
:10324C0009E002233A4A136113B100BF013BFBE7CB
:10325C000134E4B22E4684429DD2751CEDB2334B40
:10326C009A5D334EF16821F4F0610904090C5302A4
:10327C0003F400731943130203F4806319435700DA
:10328C0007F480731943930103F080031943F16031
:10329C002549CB6823F487631B041B0C02F0080C34
:1032AC0043EA0C0307F020073B43571007F01007C5
:1032BC003B43120102F480621343CB604FF40033A2
:1032CC0033610223002BBCD000BF013BFAE70E4B4D
:1032DC001B88013B0B4A1288013A9BB292B2002127
:1032EC000846FFF745FA104B01221A610020FFF740
:1032FC0057FD0020FFF716FF00214FF6FF70FFF778
:10330C001BFFF8BDAE010020A6010020A801002083
:10331C00A0010020A2010020A4010020AA0100208D
:10332C00AC010020B0010020000C0140A4350008C5
:10333C0000080140006870470C480D490D4A0023F5
:10334C0002E0D458C4500433C4188C42F9D30A4A4E
:10335C000A4C002301E013600432A242FBD3FEF7B7
:10336C00C9FFFCF711FFFDF717FE704700000020A6
:10337C00780000205039000878000020000200205E
:10338C00FEE70000F8B500BFF8BC08BC9E467047CD
:0C339C00F8B500BFF8BC08BC9E467047A6
:1033A80002030405060708090A0B0C0D0E0F10107E
:1033B800010200000A205354415254202756524714
:1033C800432D3035367468270A200000666F725F17
:1033D800646562756720555341525432206F6E20E0
:1033E800504132203131353230302F382D4E2D3189
:1033F800200A0000466C61736820726561642E2E95
:10340800200A000020776F72645F753332203D20F8
:10341800307825783B200A0020526F746174696FF8
:103428006E3A20272573273B200A200020706F69F9
:103438006E74657220253034750D0A0025642920C4
:103448000000000053756E6461795F5F5F5F3B0049
:103458004D6F6E6461795F5F5F5F3B0054756573A4
:103468006461795F5F5F3B005765646E6573646193
:10347800795F3B0054687572736461795F5F3B00E4
:103488004672696461795F5F5F5F3B005361747581
:10349800726461795F5F3B004F75745F6F665F644C
:1034A80061793B00447269766572732F53544D33CA
:1034B80032463178785F48414C5F4472697665726C
:1034C8002F5372632F73746D3332663178785F6867
:1034D800616C5F756172742E6300000044726976D6
:1034E8006572732F53544D3332463178785F4841B3
:1034F8004C5F4472697665722F5372632F73746DD3
:103508003332663178785F68616C5F7263632E630B
:1035180000000000447269766572732F53544D336E
:1035280032463178785F48414C5F447269766572FB
:103538002F5372632F73746D3332663178785F68F6
:10354800616C5F6770696F2E630000004472697672
:103558006572732F53544D3332463178785F484142
:103568004C5F4472697665722F5372632F73746D62
:103578003332663178785F68616C5F636F72746547
:10358800782E630000000000000000000102030420
:103598000607080900000000010203040100CB052A
:1035A800392C003402CF0300C130E803850078EAE3
:1035B800020000ED0464031281F70120C00123C159
:1035C8000110C5023E28C701863601483A0155B1A7
:1035D800020018B603088227F20100260101E00F55
:1035E8000F312B0C0E084EF1370710030E0900E1BE
:1035F8000F000E1403110731C148080F0C31360FA4
:1036080021001100FF9629002C0000000000000096
:103618000000000020202020002000005050000062
:10362800000000002850F850F850A000203060300A
:103638001060200020201860101000000038206062
:1036480050780000202020000000000010202020DA
:1036580020201000402020202020400020702050F2
:1036680000000000002020F82020000000000000DA
:103678001020200000000070000000000000000082
:103688000020000010202020404080002050505092
:10369800502000006020202020F80000205020202A
:1036A800407000002050102010600000103050784A
:1036B800103800007040601050200000304060500A
:1036C8005060000070501020202000002050205032
:1036D80050200000305050301060000000002000E2
:1036E800002000000000100010200000001020C082
:1036F800201000000070007000000000004020183A
:103708002040000020501020002000003048485879
:10371800484038006020507088D80000F048704851
:1037280048F000007050404040300000F0484848E1
:1037380048F00000F848604048F80000F848604049
:1037480040E000007040405850300000E848784899
:1037580048E8000070202020207000003810105029
:1037680050200000D850607050D80000E040404021
:1037780048F80000D8D8D8A888D80000D868685871
:1037880058E800003048484848300000F048487081
:1037980040E000003048484848301800F048487079
:1037A80048E800007050201050700000F8A8202051
:1037B80020700000D848484848300000D888485051
:1037C80050300000D888A8A8A8500000D850202061
:1037D80050D80000D8885020207000007848102069
:1037E80048780000302020202020300080404020F1
:1037F8002020100060202020202060002020500081
:103808000000000000000000000000F82010000088
:10381800000000000000301070780000C0407048C0
:1038280048F0000000007040407000001808384858
:1038380048380000000070704030000010207020F0
:10384800207000000000384848380830C0407048F0
:1038580048E8000020006020207000002000701060
:1038680010101070C040587050D800006020202000
:10387800207000000000D0A8A8A800000000F048B0
:1038880048C8000000003048483000000000F048F8
:10389800487040E000003848483808180000782090
:1038A8002070000000003020106000000040F04050
:1038B800483000000000D848483800000000C848D8
:1038C800303000000000D8A8A850000000004830A0
:1038D800304800000000D850502020600000785088
:1038E80028780000102020602020100020202020B0
:1038F8002020200040202030202040000000002808
:1039080050000000232D302B20000000686C4C0074
:1039180065666745464700003031323334353637FF
:1039280038394142434445460000000030313233C3
:1039380034353637383961626364656600000000E3
:0439480075010008FD
:04394C004D01000821
:103950000400002000000000000000000000000043
:103960000000000000000000000000000000000057
:103970000000000000000000000000000000000047
:103980000000000000000000000000000000000037
:103990000000000000000000000000000000000027
:1039A0000000000000000000000000000000000017
:1039B00000000000010000001000000000A24A0406
:0839C0001436000805000800A0
:040000050800334577
:00000001FF
