:020000040800F2
:200000000050002051200008E91F0008EB1F0008ED1F0008EF1F0008F11F00080000000093
:20002000000000000000000000000000F31F0008F51F000800000000F71F0008F91F00084C
:20004000992000089920000899200008992000089920000899200008992000089920000898
:20006000992000089920000899200008992000089920000899200008992000089920000878
:20008000992000089920000899200008992000089920000899200008992000089920000858
:2000A000992000089920000899200008992000089920000899200008992000089920000838
:2000C000992000089920000899200008992000089920000899200008992000089920000818
:2000E0009920000899200008992000080000000000000000000000000000000000000000BD
:2001000000000000000000005FF808F110B5054C237833B9044B13B10448AFF3008001234D
:20012000237010BD78000020000000002029000808B5034B1BB103490348AFF3008008BD21
:20014000000000007C0000202029000810B504460E4B18784FF47A73B3FBF0F30C4A10682B
:20016000B0FBF3F000F094F868B90F2C01D901200AE0002221464FF0FF3000F055F8034BB2
:200180005C60002000E0012010BD00BF000000201000002008B5074A136843F01003136064
:2001A000032000F02FF80020FFF7D0FF01F0CCFE002008BD00200240034A1168034B1B7877
:2001C0000B441360704700BFB401002000000020014B1868704700BFB401002038B50446A4
:2001E000FFF7F6FF0546B4F1FF3F02D0044B1B781C44FFF7EDFF401BA042FAD338BD00BF32
:2002000000000020074AD36823F4E0631B041B0C000200F4E060184340F0BF6040F400304E
:20022000D060704700ED00E030B4174BDB68C3F30223C3F10704042C28BF04241D1D062D3B
:2002400018D9033B4FF0FF3505FA04F421EA0401994005FA03F322EA0303194300280BDBAB
:200260000901C9B200F1604000F5614080F8001330BC70470023E5E700F00F000901C9B231
:20028000024B1954F4E700BF00ED00E014ED00E00138B0F1807F0AD2064B5860064AF0213D
:2002A00082F823100020986007221A6070470120704700BF10E000E000ED00E0042805D0EA
:2002C000054A136823F0040313607047024A136843F004031360704710E000E0704708B5A1
:2002E000FFF7FCFF08BD0000044B0022DA61044A136943F00103136101807047B801002016
:20030000002002401A4BDB6813F0100F27D0194AD36943F00203D3611023154AD26812F0E1
:20032000040F06D01349CA6942F00102CA6143F004030F4AD26912F0010F09D00D49CA69A3
:2003400042F00402CA610A49CA6922F00102CA6140F20112934204D0054AD360704700232A
:20036000DBE7034AD36923F00103D361704700BF00200240B80100200A4B1B6913F0800FCB
:200380000DD0084B084A5A6002F188325A601B6913F0800F01D00120704700207047002004
:2003A000704700BF0020024023016745034A136943F0800313610020704700BF00200240AA
:2003C00038B50446FFF704FF0546174BDB6813F0010F0AD0B4F1FF3FF7D00CB3FFF7F8FEBB
:2003E000401BA042F1D9032019E00F4BDB6813F0200F02D00C4B2022DA600B4BDB6813F0CA
:20040000100F09D1084BDB6913F0010F04D1064BDB6813F0040F05D0FFF774FF012038BD66
:200420000320FCE70020FAE7002002402DE9F843234C247E012C41D01E4690460F460446DA
:200440001F4B01221A764CF25030FFF7B9FF034670BB012C29D0022C24D04FF004090024E7
:200460004C4525D22101C1F12002A1F1200328FA01F106FA02F2114326FA03F3194389B240
:2004800007EB4400FFF730FF4CF25030FFF798FF0C4B1D6925F001051D61034640B90134C9
:2004A000E4B2DDE74FF00209D9E74FF00109D6E7034A002111761846BDE8F8830223FAE759
:2004C000B801002000200240F0B482B000263546A1E0002C59D0012C00D1CE68FF2B68D8F6
:2004E0008446FF2B68D8AC00DCF800200F27A74022EA070206FA04F42243CCF800204A6803
:2005000012F0805F00F086805E4A946944F001049461926902F001020192019AAC08A71C9C
:20052000594A52F8272005F00307BF004FF00F0C0CFA07FC22EA0C0C544A904242D002F5C9
:20054000806290427FD002F5806290427DD002F58062904234D0042235E04D4FBC4214D038
:200560000BD94C4FBC4210D007F58037BC420CD0A7F58017BC42B1D107E0A7F58017BC42C6
:2005800003D007F58037BC42A8D18C687CB1012C08D042610826A1E7CE6808369EE7CE68B0
:2005A0000C369BE70261082698E7002696E7042694E700F1040C94E7A5F10804A40093E7E3
:2005C000032200E00022BA4042EA0C0202342E4F47F824204A6812F4803F38D02E4C226807
:2005E0001A4322604A6812F4003F36D02A4C62681A4362604A6812F4801F34D0264CA268E9
:200600001A43A2604A6812F4001F32D0224CE2681343E36001350F2D31D80122AA400B6856
:2006200013409A42F6D14C68122CB8D095D8022CB2D07FF64EAF032CB7D0112C7FF44EAF58
:20064000CE6804364AE70122BDE70222BBE7124C226822EA03022260C4E70F4C626822EA15
:2006600003026260C6E70C4CA26822EA0302A260C8E7094CE26822EA0303E360CAE702B08B
:20068000F0BC704700100240000001400008014000002110000031100004014082B0084BDF
:2006A0001B68084AA2FB03235B0A00FB03F0019000BF019B5A1E0192002BF9D102B07047FA
:2006C00010000020D34D621070B582B00446036813F0010F2CD0AB4B5B6803F00C03042B53
:2006E0001DD0A84B5B6803F00C03082B12D06368B3F5803F41D0002B55D103F1804303F5FD
:2007000004331A6822F480321A601A6822F480221A6037E09B4B5B6813F4803FE7D0994B09
:200720001B6813F4003F03D06368002B00F0AE81236813F0020F76D0924B5B6813F00C0F65
:200740005FD0904B5B6803F00C03082B54D02369002B00F08A808C4B01221A60FFF738FD23
:200760000546884B1B6813F0020F75D1FFF730FD401B0228F5D903208BE1824A136843F4FB
:2007800080331360636843B3FFF722FD05467D4B1B6813F4003FCBD1FFF71AFD401B6428F1
:2007A000F5D9032075E1B3F5A02F09D0754B1A6822F480321A601A6822F480221A60E1E7A2
:2007C00003F18043A3F53C331A6842F480221A601A6842F480321A60D4E7FFF7F9FC0546B2
:2007E000684B1B6813F4003FA2D0FFF7F1FC401B6428F5D903204CE1624B5B6813F4803FED
:20080000A5D1604B1B6813F0020F04D02369012B01D001203DE15B4A136823F0F80361698C
:2008200043EAC1031360236813F0080F32D0A369002B5BD0554B01221A60FFF7C9FC054608
:20084000504B5B6A13F0020F21D1FFF7C1FC401B0228F5D903201CE14A4A136823F0F803EF
:20086000616943EAC1031360DDE7474B00221A60FFF7AEFC0546434B1B6813F0020FD2D0A6
:20088000FFF7A6FC401B0228F5D9032001E10120FFF704FF236813F0040F00F09780394B22
:2008A000DB6913F0805F33D1364BDA6942F08052DA61DB6903F080530193019B0125344B2C
:2008C0001B6813F4807F25D0E368012B36D0002B4CD103F1804303F504331A6A22F0010256
:2008E0001A621A6A22F004021A622CE0274B00221A60FFF76DFC0546224B5B6A13F0020F5A
:20090000C8D0FFF765FC401B0228F5D90320C0E00025D4E71E4A136843F480731360FFF77C
:2009200057FC06461A4B1B6813F4807FCCD1FFF74FFC801B6428F5D90320AAE0114A136AD2
:2009400043F001031362E36873B3FFF741FC06460C4B1B6A13F0020F37D1FFF739FC801B3D
:2009600041F288339842F3D9032092E0052B11D0044B1A6A22F001021A621A6A22F004023D
:200980001A62E0E700100240000042428004424200700040414B1A6A42F004021A621A6A3E
:2009A00042F001021A62CEE7FFF712FC06463B4B1B6A13F0020F08D0FFF70AFC801B41F2C0
:2009C00088339842F3D9032063E0E5B9E369002B5ED0324A526802F00C02082A5BD0022B4D
:2009E00017D02F4B00221A60FFF7F2FB04462B4B1B6813F0007F47D0FFF7EAFB001B02281B
:200A0000F5D9032045E0254AD36923F08053D361DCE7234B00221A60FFF7DAFB05461F4BAE
:200A20001B6813F0007F06D0FFF7D2FB401B0228F5D903202DE0236AB3F5803F1AD0174957
:200A40004B6823F47413226A606A024313434B60134B01221A60FFF7BBFB04460F4B1B68DB
:200A600013F0007F0ED1FFF7B3FB001B0228F5D903200EE0094A536823F40033A1680B439E
:200A80005360DCE7002004E0002002E0012000E0002002B070BD0120FBE700BF00100240C6
:200AA0006000424210B487B0164C94E80F000DF1180C0CE90F00238AADF80430124B5B689E
:200AC00003F00C02082A1AD1C3F38342624412F8102C13F4803F05D10C4800FB02F007B0FD
:200AE00010BC7047084B5B68C3F34043634413F8143C074800FB02F0B0FBF3F0EFE7044836
:200B0000EDE700BF382900080010024000093D0000127A00594B1B6803F007038B420CD2E6
:200B2000564A136823F007030B431360136803F007038B4201D00120704770B5036813F03B
:200B4000020F06D04E4A536823F0F0038468234353600C460546036813F0010F52D0436868
:200B6000012B23D0022B28D0454A126812F0020F00F0828042494A6822F0030213434B60CE
:200B8000FFF726FB06466B68012B1DD0022B2AD03B4B5B6813F00C0F34D0FFF719FB801BCF
:200BA00041F288339842F3D9032064E0344A126812F4003FDED101205DE0314A126812F0F9
:200BC000007FD7D1012056E02D4B5B6803F00C03042B17D0FFF7FCFA801B41F288339842F5
:200BE000F2D9032047E0264B5B6803F00C03082B08D0FFF7EDFA801B41F288339842F2D994
:200C0000032038E01D4B1B6803F00703A3420CD91A4A136823F0070323431360136803F0A4
:200C20000703A34201D0012025E02B6813F0040F06D0134A536823F4E063E9680B4353608B
:200C40002B6813F0080F07D00D4A536823F46053296943EAC1035360FFF724FF084B5B68CF
:200C6000C3F30313074AD35CD840074B18600020FFF76CFA002070BD0120FCE70020024017
:200C800000100240302E000810000020014B1868704700BF10000020012800D970472DE92B
:200CA000F04188B004462D4B9A6942F004029A619A6902F004020192019A9A6942F008026B
:200CC0009A619A6902F008020292029A9A6942F010029A619B6903F010030393039B4FF427
:200CE000E063049305900026069602250795DFF8748004A94046FFF7E7FB4FF48763049366
:200D0000059406960795164F04A93846FFF7DCFB8023049305940696079504A94046FFF771
:200D2000D3FB13230493012405940696079504A94046FFF7C9FB049405940696079504A91F
:200D40003846FFF7C1FB049505940696079504A93846FFF7B9FB08B0BDE8F0810010024004
:200D6000000C014000080140F0B5050AC4B2AF4E4FF480333361AE4A4FF480131361D368AF
:200D800023F4F0631B041B0C43F48063D360F36823F487631B041B0C43F01803F3604FF4D0
:200DA00000331361022301E000BF013B002BFBD102239F4A136101E000BF013B002BFBD13F
:200DC0009B4E10233361030AF76827F4F0673F043F0C5A0202F4007217431A0202F48062E5
:200DE00017434FEA430C0CF4807217439A0102F080021743F7608D4FFA6822F487621204B2
:200E0000120C03F0080E42EA0E020CF0200C42EA0C024FEA630C0CF0100C42EA0C021B01F7
:200E200003F480631343FB604FF400333361022301E000BF013B002BFBD102237C4A1361C6
:200E400001E000BF013B002BFBD1C0B2784EF26822F4F0621204120C430203F400731A4385
:200E6000030203F480631A43470007F480731A43830103F080031A43F2606C4AD36823F4F3
:200E800087631B041B0C00F0080C43EA0C0307F020073B43471007F010073B43000100F46E
:200EA00080601843D0604FF400333361022301E000BF013B002BFBD102235D4A136101E0A4
:200EC00000BF013B002BFBD10139A54276D121E000BF013B002BFBD1022355490B6101E0B5
:200EE00000BF013B002BFBD103F1804303F584334FF400311961022301E000BF013B002B80
:200F0000FBD102234A490B6101E000BF013B002BFBD111464A1E002900F08380444B4FF461
:200F2000003119610223D5E700BF013B002BFBD102233F4A136101E000BF013B002BFBD13E
:200F40003B49CA6822F4F0621204120C630203F400731A43230203F480631A43660006F457
:200F600080731A43A30103F080031A43CA602F4FFB6823F487631B041B0C04F00802134304
:200F800006F020063343621002F010021343220102F480621343FB604FF400330B61022340
:200FA00001E000BF013B002BFBD10223204A136101E000BF013B002BFBD10146481E81B3A7
:200FC0001B49CA6822F4F0621204120C6B0203F400731A432B0203F480631A436E0006F4DF
:200FE00080731A43AB0103F080031A43CA600F4FFB6823F487631B041B0C05F0080213439B
:2010000006F0200633436A1002F0100213432A0102F480621343FB604FF400330B610223AF
:2010200084E7024B01221A61F0BD00BF000C014000080140F8B5274E01233361264D1022D9
:201040002A6102242C612B614FF4003737612046FFF7C4F834617820FFF7C0F84FF48033CB
:2010600033614FF480132B61EB6823F4F0631B041B0CEB60F36823F487631B041B0CF36037
:201080002F6101E000BF013C002CFBD10223124A136101E000BF013B002BFBD100220DE014
:2010A00000BF013B002BFBD102230B490B6101E000BF013B002BFBD10132D2B2022A05D8C6
:2010C000054B4FF4003119610223EBE7014B01221A61F8BD000C014000080140F0B4C44DF1
:2010E0004FF480342C6142EA004204F1804404F500644FF480102061E06820F4F0600004E4
:20110000000C40F08000E060E86820F487600004000C40F01800E8604FF4003020610220D2
:2011200001E000BF01380028FBD10220B14C206101E000BF01380028FBD1AE4E10203061B8
:20114000140EF56825F4F0652D042D0C600200F400700543200200F480600543670007F48A
:2011600080700543A00100F080000543F560A04DE86820F487600004000C04F0080C40EA0F
:201180000C0007F020073843671007F010073843240104F480640443EC604FF40030306112
:2011A000022001E000BF01380028FBD10220914C206101E000BF01380028FBD1C2F30744F3
:2011C0008C4EF56825F4F0652D042D0C600200F400700543200200F480600543670007F452
:2011E00080700543A00100F080000543F560804DE86820F487600004000C04F0080C40EAAF
:201200000C0007F020073843671007F010073843240104F480640443EC604FF40030306191
:20122000022001E000BF01380028FBD10220714C206101E000BF01380028FBD1C2F30724B2
:201240006C4EF06820F4F0600004000C650205F400752843250205F480652843670007F4F6
:2012600080752843A50105F080052843F0606048C56825F487652D042D0C04F0080C45EAB8
:201280000C0507F020073D43671007F010073D43240104F480642C43C4604FF40030306102
:2012A000022001E000BF01380028FBD10220514C206101E000BF01380028FBD1D2B24D4D14
:2012C000E86820F4F0600004000C540204F400742043140204F480642043560006F480748C
:2012E0002043940104F080042043E8604048C46824F487642404240C02F008073C4306F04E
:2013000020063443561006F010063443120102F480622243C2604FF400322A61022201E0D0
:2013200000BF013A002AFBD102223248026101E000BF013A002AFBD143EA01432D494FF4C1
:2013400080120A61CA6822F4F0621204120C42F42072CA602648C26822F487621204120C05
:2013600042F01802C2604FF400320A61022201E000BF013A002AFBD102221E490A6101E053
:2013800000BF013A002AFBD11A4C102222611A0EE06820F4F0600004000C510201F40071A5
:2013A0000843110201F480610843550005F480710843910101F080010843E0600C48C16818
:2013C00021F487610904090C02F00806314305F020052943551005F010052943120102F410
:2013E00080620A43C2604FF400322261022205E0000C01400008014000BF013A002AFBD115
:20140000022264490A6101E000BF013A002AFBD1C3F307425F4CE06820F4F0600004000C59
:20142000510201F400710843110201F480610843550005F480710843910101F0800108439B
:20144000E0605548C16821F487610904090C02F00806314305F020052943551005F01005FE
:201460002943120102F480620A43C2604FF400322261022201E000BF013A002AFBD1022295
:2014800044490A6101E000BF013A002AFBD1C3F30722404CE06820F4F0600004000C510209
:2014A00001F400710843110201F480610843550005F480710843910101F080010843E0602E
:2014C0003548C16821F487610904090C02F00806314305F020052943551005F01005294372
:2014E000120102F480620A43C2604FF400322261022201E000BF013A002AFBD10222254913
:201500000A6101E000BF013A002AFBD1DBB2214CE06820F4F0600004000C5A0202F4007215
:2015200010431A0202F480621043590001F4807210439A0102F080021043E0601648C26854
:2015400022F487621204120C03F008052A4301F020010A43591001F010010A431B0103F4C1
:2015600080631343C3604FF400332361022301E000BF013B002BFBD10223064A136101E053
:2015800000BF013B002BFBD1034B01221A61F0BC704700BF00080140000C01400028C0F2DB
:2015A000C3800029C0F2C080F8B5604BB3F90040844203DDB3F902308B4200DCF8BD15464C
:2015C0005B4E4FF480373761013B013C9BB2A2B289B280B2FFF782FD3761564A4FF48013C6
:2015E0001361D36823F4F0631B041B0C43F48063D360F36823F487631B041B0C43F018034F
:20160000F3604FF400331361022301E000BF013B002BFBD10223474A136101E000BF013B8F
:20162000002BFBD14348102303612B0AC16821F4F0610904090C5A0202F4007211431A0277
:2016400002F4806211435C0004F4807211439A0102F080021143C1603549CA6822F4876291
:201660001204120C03F00806324304F0200422435C1004F0100422431B0103F4806313431E
:20168000CB604FF400330361022301E000BF013B002BFBD10223274A136101E000BF013B67
:2016A000002BFBD1EAB22348C16821F4F0610904090C530203F400731943130203F4806371
:2016C0001943540004F480731943930103F080031943C160164DEB6823F487631B041B0C8F
:2016E00002F008010B4304F020042343511001F010010B43120102F480621343EB604FF4A3
:2017000000330361022301E000BF013B002BFBD10223084A136101E000BF013B002BFBD17C
:20172000034B01221A6149E7704700BF94000020000C01400008014010B50446084A538891
:20174000013B1288013A9BB292B200210846FFF7C5FC4FF496312046FFF706FB10BD00BFCE
:201760009400002010B500F00300454B187101282DD003282BD0F0221A804FF4A0725A80BD
:20178000404B4FF480321A613D4B1B79022B25D0032B25D0012B25D048223B494FF4801308
:2017A0000B61CB6823F4F0631B041B0C43F49063CB603448C36823F487631B041B0C43F064
:2017C0003003C3604FF400330B6102230EE02C4B4FF4A0721A80F0225A80D1E78822DCE747
:2017E000E822DAE72822D8E700BF013B002BFBD1022325490B6101E000BF013B002BFBD151
:20180000214910230B61CB6823F4F0631B041B0C500000F480700343CB601A4CE36823F46F
:2018200087631B041B0C02F008000343501000F010000343120102F480621343E3604FF4CB
:2018400000330B61022301E000BF013B002BFBD102230D4A136101E000BF013B002BFBD12E
:20186000074A5388013B1288013A9BB292B200210846FFF733FC034B01221A6110BD00BF8E
:2018800094000020000C0140000801402DE9F04F87B00193BDF8403002933D4BB3F806B03B
:2018A0009D883C4BB3F9003083426DDD80460E46384BB3F902308B4266DD4319012B63D447
:2018C00001EB0B03012B5FD4EB1DDB1003931F2A03D97E2A02D9202200E02022203A02FBC3
:2018E0000BF2039881B20B4603FB02F305934FEAC0095FFA89F9EBB2A9EB03095FFA89F94C
:201900004FF0000ACDF810B08B4625E0D75C00240CE0D35C4F7847EA0327F8E704EB0800B9
:20192000029A314600B2FFF739FE0134A5420FD92B1B4B44013B012202FA03F33B42EDD051
:2019400004EB0800019A314600B2FFF727FEECE7013636B20AF1010A049B534514D90C4B3E
:201960001A68039B05990AFB0313D118BBF1010FCCD0BBF1020FCCD0D35C4F783F0247EA8C
:2019800003478B781F43C2E707B0BDE8F08F00BF08000020940000200FB470B584B008AAAB
:2019A00052F8041B0392384C204600F0B1FB374BDA88ADF80A209B88ADF808300BE0BDF850
:2019C0000A20334BB3F808110A44A3F808210022A3F80A2101342278002A4FD00A2AEED097
:2019E0000D2A3CD0092A3FD02949B1F90801BDF80A50B1F902305B1B984203DB0B460021B2
:201A0000A3F80811224DB5F80C31B5F90811B5F90A0195F80E610196B5F810610096FFF7FC
:201A200035FFBDF80830B5F80A2113441BB2A5F80A3195F81221002ACCD0BDF80810B5F9B0
:201A40000020521A9342C5DDBDF80A20B5F808110A44A5F808210022A5F80A21BAE70C4BE8
:201A60000022A3F80A21B5E7BDF80810084AB2F80A3103EB8103A2F80A31ABE704B0BDE8AC
:201A8000704004B0704700BF9C000020080000209400002018B9044A82F80E017047024B28
:201AA000002283F80E21704794000020024BA3F80C01A3F81011704794000020F8B56D4B6E
:201AC000F0221A804FF4A0725A8000261E71A3F80A61A3F8086183F80E614FF6FF72A3F831
:201AE0001021A3F80C21012083F81201FFF7D4F8FFF7A0FA3220FEF771FB5F4B4FF480329A
:201B00001A616D2E00F29B80721CD2B25B498B5D0236F6B2885CFF2B02D1FEF75FFBF0E71D
:201B2000574C4FF480122261E16821F4F0610904090C5A0202F4007211431A0202F48062CD
:201B400011435D0005F4807211439A0102F080021143E1604849CA6822F487621204120CFB
:201B600003F008073A4305F020052A435D1005F010052A431B0103F480631343CB604FF4C1
:201B800000332361022301E000BF013B002BFBD102233B4A136101E000BF013B002BFBD1A5
:201BA00003F1804303F5843310221A6100240EE000BF013B002BFBD10223314A136101E019
:201BC00000BF013B002BFBD10134E4B22E46844297D2751CEDB2294B9A5D294EF16821F425
:201BE000F0610904090C530203F400731943130203F480631943570007F4807319439301D7
:201C000003F080031943F1601B49CB6823F487631B041B0C02F0080C43EA0C0307F0200763
:201C20003B43571007F010073B43120102F480621343CB604FF4003333610223BAE70D4AA0
:201C40005388013B1288013A9BB292B200210846FFF744FA084B01221A610020FFF76CFDF4
:201C60000020FFF717FF00214FF6FF70FFF71EFFF8BD00BF94000020000C0140C02D0008E6
:201C80000008014000687047034BDB6813F0010F0CBF0120002070470020024008B50A4B01
:201CA0001A6942F002021A6158611A6942F040021A61FFF7E9FF0028FBD0034A136923F018
:201CC0000203136108BD00BF0020024038B504460D460C4A136943F001031361FFF7D4FFD5
:201CE0000028FBD02A46002321460220FEF79EFBFFF7CAFF0028FBD0024A136923F00103B6
:201D0000136138BD0020024082B00A4B9A6942F020029A619A6902F020020092009A9A69D9
:201D200042F004029A619B6903F004030193019B02B0704700100240FEE7000000B591B0AC
:201D4000012206924FF480330793002108910A9202220D920E934FF4E0130F9306A8FEF703
:201D6000B3FC08BB0F23019302210291002303934FF480620492059301A8FEF7CBFEB8B991
:201D8000FEF784FF0C4BA3FB00308009FEF780FA0420FEF793FA002211464FF0FF30FEF72C
:201DA00043FA11B05DF804FBC1210448FFF7C4FFCF210248FFF7C0FFD34D6210482E0008EB
:201DC00030B583B0FEF7E6F9FFF7B8FFFFF79CFFFFF774FE0120FFF7C5FC4FF6FF70FFF7EF
:201DE000ABFC4FF6FF7140F2FF70FFF75FFE4048FFF7D2FD3F48FFF7CFFD3F48FFF742FF3F
:201E0000014602AC44F8040D3C48FFF7C5FD21463B48FFF7C1FD019A3A4B9A421CD03A483C
:201E2000FFF7BAFDFEF7A8FA3848FFF7B5FD324C2046FFF733FF334D02A941F8085D3448E5
:201E4000FFF7AAFD29462046FFF740FFFEF7AEFA3048FFF7A1FD48E02F48FFF79DFD44E0DF
:201E60002E48FFF799FD2E48FFF796FD4FF47A70FEF7B4F90134082C34DC21462948FFF74B
:201E80008BFD631E062B29D801A252F823F000BFAD1E0008B51E0008BD1E0008C51E0008CC
:201EA000CD1E0008D51E0008611E00081E48FFF773FDD8E71D48FFF76FFDD4E71C48FFF746
:201EC0006BFDD0E71B48FFF767FDCCE71A48FFF763FDC8E71948FFF75FFDC4E71848FFF758
:201EE0005BFDC0E71748FFF757FD0024C3E700BF582E0008642E000800FC0008742E0008D7
:201F0000842E00084C656674902E0008A02E0008B42E0008CC2E0008E02E0008FC2E0008AC
:201F2000B02E0008F82E0008082F0008142F0008202F00082C2F0008382F0008442F00085F
:201F4000502F0008602F000800B583B0244B9A6942F001029A619A6902F001020092009AB5
:201F6000DA6942F08052DA61DB6903F080530193019B0320FEF746F9002211466FF00B006B
:201F8000FEF752F9002211466FF00A00FEF74CF9002211466FF00900FEF746F90022114657
:201FA0006FF00400FEF740F9002211466FF00300FEF73AF9002211466FF00100FEF734F992
:201FC000002211464FF0FF30FEF72EF9054A536823F0E06343F00073536003B05DF804FB3E
:201FE00000100240000001407047FEE7FEE7FEE7FEE770477047704708B5FEF7DDF8FEF762
:020000040800F2
:202000006EF908BD0F4B1A6842F001021A6059680D4A0A405A601A6822F0847222F480329B
:202020001A601A6822F480221A605A6822F4FE025A604FF41F029A60044B4FF000629A6098
:20204000704700BF001002400000FFF800ED00E0002103E00B4B5B58435004310A480B4B77
:2020600042189A42F6D30A4A02E0002342F8043B084B9A42F9D3FFF7C5FF00F00FF8FFF7ED
:202080009FFE7047A42F0008000000207800002078000020DC010020FEE7000070B5002595
:2020A0000C4E0D4CA41BA410A54209D100F038FC00250A4E0A4CA41BA410A54205D170BDE5
:2020C00056F8253098470135EEE756F8253098470135F2E79C2F00089C2F00089C2F000869
:2020E000A02F000800B59BB0009104916FF000410591029105490391694600F06DF8002212
:20210000009B1A701BB05DF804FB00BF0802FFFF13460A46014602480068FFF7E3BF00BFBB
:20212000140000202DE9F0478E6882469E420C469046994637D88A8912F4906F31D002232C
:20214000256809696F1A656905EB450595FBF3F509F101033B449D4238BF1D46530530D564
:20216000294600F035FB064650B90C234FF0FF30CAF80030A38943F04003A381BDE8F0870A
:202180003A46216900F0B4FAA38923F4906343F08003A38126613E4426604E466561ED1B96
:2021A000A5604E4500D94E4632464146206800F0AAFAA36800209B1BA36023681E442660A8
:2021C000DCE72A4600F05EFB06460028E2D12169504600F0B1FAC8E72DE9F04F9DB00393BA
:2021E0008B8980461D060C4616460FD50B696BB9402100F0EDFA2060206128B90C23C8F8AF
:2022000000304FF0FF30C7E0402363610023099320238DF8293030234FF0010B8DF82A30F5
:2022200037463D4615F8013B0BB1252B3ED1B7EB060A0BD05346324621464046FFF772FF48
:20224000013000F0A480099B534409933B78002B00F09D8000234FF0FF32CDE9052304936F
:2022600007938DF853301A932F46052217F8011B4F4800F02FFA049BD0B9D90644BF20224C
:202280008DF853201A0744BF2B228DF853202A782A2A15D02F4600200A25079A394611F815
:2022A000013B303B092B4DD9B8B10FE02F46B8E73F4A3D46801A0BFA00F018430490D3E76D
:2022C000039A111D12680391002A01DB079204E0524243F00203079204933B782E2B0CD1BD
:2022E0007B782A2B33D1039B02371A1D1B680392002BB8BF4FF0FF3305932E4D0322397870
:20230000284600F0E7F938B14023401B03FA00F0049B0137034304933978062226487E1C56
:202320008DF8281000F0D6F9002838D0234B13BB039B073323F0070308330393099B4B44BC
:2023400009936DE705FB023201200F46A6E700230A25194601370593384610F8012B303AB9
:20236000092A03D9002BC8D00591C6E705FB012101230746F0E703AB00932246104B04A92D
:202380004046AFF30080B0F1FF3F8146D6D1A3895B063FF536AF09981DB0BDE8F08F03AB62
:2023A00000932246064B04A9404600F081F8EAE7682F00086E2F0008722F00080000000077
:2023C000252100082DE9F04791461F468A680B6906469342B8BF1346C9F8003091F84320F2
:2023E0000C46DDF8208012B10133C9F800302368990642BFD9F800300233C9F8003025684F
:2024000015F0060507D104F1190AE368D9F800209B1AAB4229DC94F843302268003318BF46
:20242000012392062ED404F1430239463046C047013021D02368E56803F00603042B18BFAC
:202440000025D9F800204FF0000908BFAD1AA368226908BF25EAE5759342C4BF9B1AED18B8
:202460001A344D451AD1002008E00123524639463046C047013003D14FF0FF30BDE8F08742
:202480000135C2E73020E11881F843005A1C94F845102244023382F84310C4E70123224662
:2024A00039463046C0470130E6D009F10109D8E72DE9F04301F1430C0C46097E85B06E2947
:2024C0001746064698460C9A00F0B38022D8632936D00AD8002900F0B980582900F0838078
:2024E00004F1420584F8421032E0642901D06929F6D120681368050603F104012AD51B6880
:202500001160002B03DA2D225B4284F843206F480A2239E0732900F09D8008D86F2920D06A
:202520007029DDD1236843F02003236003E0752917D07829D4D17823654884F8453055E0D4
:20254000136804F14205191D1B68116084F8423001238CE01B6810F0400F116018BF1BB235
:20256000CFE713682568181D1060280601D51B6802E06806FBD51B886F2914BF0A220822ED
:202580005248002184F843106568002DA560C0F29580216821F004012160002B3DD1002D65
:2025A00040F08E806546082A0BD12368DB0708D5236962689A42DEBF302305F8013C05F188
:2025C000FF35ACEB05032361CDF800803B4603AA21463046FFF7F6FE01304DD14FF0FF30AD
:2025E00005B0BDE8F083394884F84510136821681D1D1B6815600A060BD5CA0744BF41F091
:20260000200121601BB9226822F0200222601022B7E74D0648BF9BB2EFE76546B3FBF2F17B
:2026200002FB1133C35C05F8013D0B460029F5D1B9E713682568181D6169106028061B68F7
:2026400001D5196002E06A06FBD51980002365462361B9E71368191D11601D6862680021EC
:20266000284600F037F808B1401B606063682361002384F84330A7E723692A463946304619
:20268000C0470130AAD023689B0713D4E068039B9842B8BF1846A3E701234A4639463046AC
:1C26A000C04701309AD00135E368039A9B1AAB42F2DCEBE7002504F11909F5E704
:00000001FF
